:04000000A1EF01F07B
:10000800E1CF12F0E2CF13F0D9CF14F0DACF15F028
:10001800F3CF16F0F4CF17F0F6CF18F0F7CF19F0AA
:10002800F8CF1AF0F5CF1BF019EE34F0D8CF61F005
:100038000001606FE0CF62F0EACF63F0E9CF64F0CF
:10004800F2BAF2A44ED100016505D8A405D01B0E62
:10005800FC6E000E0001656F6FC0EAFF000EE96ECE
:1000680060C0EEFF61C0EEFF62C0EEFFFCCFEEFFA6
:1000780063C0EEFF64C0EEFFE2CFEEFFE1CFEEFF1C
:10008800DACFEEFFD9CFEEFFF4CFEEFFF3CFEEFFDE
:10009800F8CFEEFFF7CFEEFFF6CFEEFFF5CFEEFF8E
:1000A800FBCFEEFFFACFEEFF000EE26E000EE16E20
:1000B800E6CFEEFFE6CFEEFFE6CFEEFFE6CFEEFFB0
:1000C800E6CFEEFFE6CFEEFFE6CFEEFFE6CFEEFFA0
:1000D800E6CFEEFFE6CFEEFFE6CFEEFFE6CFEEFF90
:1000E800E6CFEEFFE6CFEEFFE6CFEEFFE6CFEEFF80
:1000F800E6CFEEFFE6CFEEFFE6CFEEFFE6CFEEFF70
:10010800E6CFEEFFE6CFEEFFE6CFEEFFE6CFEEFF5F
:10011800E6CFEEFFE6CFEEFFE6CFEEFFE6CFEEFF4F
:10012800E6CFEEFFE6CFEEFFE6CFEEFFE6CFEEFF3F
:10013800E6CFEEFFE6CFEEFFE6CFEEFFE6CFEEFF2F
:10014800E6CFEEFFE6CFEEFFE6CFEEFFE6CFEEFF1F
:10015800E6CFEEFFE6CFEEFFE6CFEEFFE6CFEEFF0F
:10016800E6CFEEFFE6CFEEFFE6CFEEFFE6CFEEFFFF
:100178008A0ED76ECF0ED66EF2940001714B722B99
:100188000001702B060E00017019D8A403D0000ED0
:100198000001706F00017051010D690EF324D96ED2
:1001A800000EF420DA6EDF5000016F6F000EE26E71
:1001B800000EE16E6FC0EAFF120EE96EEECFE6FFA9
:1001C800EECFE6FFEECFE6FFEECFE6FFEECFE6FF9F
:1001D800EECFE6FFEECFE6FFEECFE6FFEECFE6FF8F
:1001E800EECFE6FFEECFE6FFEECFE6FFEECFE6FF7F
:1001F800EECFE6FFEECFE6FFEECFE6FFEECFE6FF6F
:10020800EECFE6FFEECFE6FFEECFE6FFEECFE6FF5E
:10021800EECFE6FFEECFE6FFEECFE6FFEECFE6FF4E
:10022800EECFE6FFEECFE6FFEECFE6FFEECFE6FF3E
:10023800EECFE6FFEECFE6FFEECFE6FFEECFE6FF2E
:10024800EECFE6FFEECFE6FFEECFE6FFEECFE6FF1E
:10025800EECFE6FFEECFE6FFEECFE6FFEECFE6FF0E
:10026800EECFE6FFEECFE6FFEECFE6FFEECFE6FFFE
:10027800EECFE6FFEECFE6FFEECFE6FF6FC0EAFF78
:10028800000EE96EEECF60F0EECF61F0EECF62F0D7
:10029800EECFFCFFEECF63F0EECF64F0EECFE2FFDF
:1002A800EECFE1FFEECFDAFFEECFD9FFEECFF4FFCE
:1002B800EECFF3FFEECFF8FFEECFF7FFEECFF6FF6E
:1002C800EECFF5FFEECFFBFFEECFFAFF64C0E9FFFC
:1002D80063C0EAFF62C0E0FF0001605161C0D8FF5F
:1002E800100064C0E9FF63C0EAFF62C0E0FF0001DC
:1002F800605161C0D8FF10004DEC08F008EC0BF01D
:10030800C5EC0CF0F8EC0BF084EC0BF017EC10F0EB
:100318001BC0F5FF1AC0F8FF19C0F7FF18C0F6FF99
:1003280017C0F4FF16C0F3FF15C0DAFF14C0D9FFD9
:1003380013C0E2FF12C0E1FF110016EE42F0BCEF5D
:0203480010F0B3
:101000000020415543554E20202020202020202024
:1010100020202020200054656D702E204875696CBA
:10102000653A00582D4A6F79737469636B3A0059B9
:101030002D4A6F79737469636B3A0054656D702E35
:10104000204561753A0042617474657269653A00C1
:10105000566974657373653A004D61726368653AE9
:101060000042616467653A0053696567653A004DFF
:10107000415448E94F0028282129290043686F631B
:101080003A004C554341530020793D004E200078F2
:091090003D0041520041560000F0
:10109A00F29E3AEC0FF05FEC0CF0D1EC0FF0E9ECB9
:1010AA000FF03CEC10F0020E6EEC10F0010E000195
:1010BA00806F520EAD6EF28E8B948B928F90000ED3
:1010CA000001736F780E0001746F000E00017F6FCC
:1010DA00220E096E0D0EC4EC0EF0520EB8EC0FF093
:1010EA00200EB8EC0FF0560EB8EC0FF0200EB8EC4C
:1010FA000FF0420EB8EC0FF0220E096E0E0EC4EC81
:10110A000EF0300EB8EC0FF0200EB8EC0FF0300EE7
:10111A00B8EC0FF0200EB8EC0FF0300EB8EC0FF070
:10112A00220E096E0F0EC4EC0EF0310EB8EC0FF061
:10113A00200EB8EC0FF0310EB8EC0FF0200EB8EC20
:10114A000FF0310EB8EC0FF0000E0001666F000EC2
:10115A00096E000EC4EC0EF0590E086E100E096EE0
:10116A0060EC0FF081B007D0950E086E100E096E74
:10117A0060EC0FF00FD081B207D0920E086E100EFD
:10118A00096E60EC0FF006D08C0E086E100E096E18
:10119A0060EC0FF0000E096E010EC4EC0EF0680E42
:1011AA00086E100E096E60EC0FF081B40AD0310E91
:1011BA00B8EC0FF06F0E086E100E096E60EC0FF0AF
:1011CA0009D0300EB8EC0FF0820E086E100E096EC0
:1011DA0060EC0FF0000E096E020EC4EC0EF03B0E2E
:1011EA00086E100E096E60EC0FF0020E9DEC0FF007
:1011FA0044EC0EF0000E096E030EC4EC0EF0160E4F
:10120A00086E100E096E60EC0FF0030E9DEC0FF0E5
:10121A0044EC0EF0000E096E040EC4EC0EF07C0EC7
:10122A00086E100E096E60EC0FF081B604D0310E14
:10123A00B8EC0FF003D0300EB8EC0FF0000E096EC8
:10124A00050EC4EC0EF0500E086E100E096E60EC1E
:10125A000FF084B002D00001732B84B202D00001D7
:10126A0073070001735144EC0EF0000E096E060E6E
:10127A00C4EC0EF0460E086E100E096E60EC0FF00C
:10128A0084B402D00001742B84B602D00001740722
:10129A000001745144EC0EF0000E096E070EC4EC06
:1012AA000EF084B807D0760E086E100E096E60EC48
:1012BA000FF006D0100E086E100E096E60EC0FF0DB
:1012CA00000E096E080EC4EC0EF0610E086E100EC8
:1012DA00096E60EC0FF000017F51D8A407D0010E0F
:1012EA00086E100E096E60EC0FF014D0000E0D6E31
:1012FA000CD00D50010D750EF324D96E000EF4209A
:10130A00DA6EDF5044EC0EF00D2A00017F510D5CBD
:10131A00D8A0EFD7000E096E090EC4EC0EF0230E0A
:10132A00086E100E096E60EC0FF00A0E9DEC0FF0BD
:10133A0044EC0EF0000E096E0A0EC4EC0EF02F0EED
:10134A00086E100E096E60EC0FF00B0E9DEC0FF09C
:10135A0044EC0EF000016605D8A420D0140E096EE4
:10136A00000EC4EC0EF08F0E086E100E096E60ECC3
:10137A000FF00001675144EC0EF0880E086E100E53
:10138A00096E60EC0FF00001685144EC0EF068C081
:10139A0009F00001675177EC0DF0D9D600F0D7D6E5
:1013AA00010E0001656F010E0001696F020E000156
:1013BA006A6F030E00016B6F040E00016C6F050E5D
:1013CA0000016D6F060E00016E6F050E0001706F51
:1013DA0000017051010D690EF324D96E000EF4203C
:1013EA00DA6EDF5000016F6FFCCF1CF0020EFC6E4C
:1013FA009A0E296E100E2A6E000E2B6E29C02EF040
:10140A002AC02FF02BC030F02E0E2C6E000E2D6E3F
:10141A002CC0D9FF2DC0DAFFDF50FD6E2C4A2D2AD1
:10142A002CC0D9FF2DC0DAFFDF50FE6E2C4A2D2AC0
:10143A002CC0D9FF2DC0DAFFDF50FF6E070EFC6EFD
:10144A00100E296E160E2A6E000E2B6E29C02EF073
:10145A002AC02FF02BC030F02E0E2C6E000E2D6EEF
:10146A002CC0D9FF2DC0DAFFDF50FD6E2C4A2D2A81
:10147A002CC0D9FF2DC0DAFFDF50FE6E2C4A2D2A70
:10148A002CC0D9FF2DC0DAFFDF50FF6E0C0EFC6EA8
:10149A008A0E296E190E2A6E000E2B6E29C02EF0A6
:1014AA002AC02FF02BC030F02E0E2C6E000E2D6E9F
:1014BA002CC0D9FF2DC0DAFFDF50FD6E2C4A2D2A31
:1014CA002CC0D9FF2DC0DAFFDF50FE6E2C4A2D2A20
:1014DA002CC0D9FF2DC0DAFFDF50FF6E110EFC6E53
:1014EA00F00E296E170E2A6E000E2B6E29C02EF0F2
:1014FA002AC02FF02BC030F02E0E2C6E000E2D6E4F
:10150A002CC0D9FF2DC0DAFFDF50FD6E2C4A2D2AE0
:10151A002CC0D9FF2DC0DAFFDF50FE6E2C4A2D2ACF
:10152A002CC0D9FF2DC0DAFFDF50FF6E160EFC6EFD
:10153A00080E296E170E2A6E000E2B6E29C02EF089
:10154A002AC02FF02BC030F02E0E2C6E000E2D6EFE
:10155A002CC0D9FF2DC0DAFFDF50FD6E2C4A2D2A90
:10156A002CC0D9FF2DC0DAFFDF50FE6E2C4A2D2A7F
:10157A002CC0D9FF2DC0DAFFDF50FF6E1B0EFC6EA8
:10158A002E0E296E200E2A6E000E2B6E29C02EF00A
:10159A002AC02FF02BC030F02E0E2C6E000E2D6EAE
:1015AA002CC0D9FF2DC0DAFFDF50FD6E2C4A2D2A40
:1015BA002CC0D9FF2DC0DAFFDF50FE6E2C4A2D2A2F
:1015CA002CC0D9FF2DC0DAFFDF50FF6E1CC0FCFF14
:1015DA00020E0101036F070E0201036F0C0E0301D5
:1015EA00036F110E0401036F160E0501036F1B0E24
:1015FA000601036F000E0001726F000E716F010E7B
:10160A00D56EF28A1200000E77D08F868F980B0E55
:10161A00026EB80E016EB0EC10F0160EC06E010E1E
:10162A00C26E030EC26EC2B2FED7C4CF0EF0C3CFD3
:10163A000FF00FC008F00F0E0816D8B404D0000E31
:10164A000E6E000E0F6E090E0E64DDD78F968F8810
:10165A000B0E026EB80E016EB0EC10F0160EC06ED4
:10166A00050EC26E070EC26EC2B2FED7C4CF10F00C
:10167A00C3CF11F011C008F00F0E0816D8B404D069
:10168A00000E106E000E116E130E1064BCD70E50B1
:10169A00086E0F500A6E08C00BF01050086E1150F9
:1016AA000C6E08C00DF0B20E0A240A6EF30E0B205F
:1016BA000B6E9C0E0C240C6EE60E0D200D6E0AC0ED
:1016CA0001F00BC002F0000E046EF60E036E72EC0F
:1016DA000EF001500001676F0CC001F00DC002F05E
:1016EA00010E046E990E036E72EC0EF001500008A2
:1016FA007F0F0001686F010E0001666F86D79EA8F2
:10170A00FED7740EAD6EACA2FED79EA8FED7610EB0
:10171A00AD6EACA2FED79EA8FED7630EAD6EACA28C
:10172A00FED79EA8FED7680EAD6EACA2FED79EA8C5
:10173A00FED7650EAD6EACA2FED79EA8FED7350EBB
:10174A00AD6EACA2FED79EA8FED75F0EAD6EACA260
:10175A00FED79EA8FED7650EAD6EACA2FED79EA898
:10176A00FED76E0EAD6EACA2FED79EA8FED75F0E58
:10177A00AD6EACA2FED79EA8FED7630EAD6EACA22C
:10178A00FED79EA8FED76F0EAD6EACA2FED79EA85E
:10179A00FED7750EAD6EACA2FED79EA8FED7720E0E
:1017AA00AD6EACA2FED79EA8FED7730EAD6EACA2EC
:1017BA00FED7000E026E000E016EE80E015CFD0EF1
:1017CA000258D8B003D0014A022AF7D7000E026E97
:1017DA00000E016EE80E015CFD0E0258D8B08FD7DC
:1017EA00014A022AF7D79EA8FED7540EAD6EACA2C4
:1017FA00FED79EA8FED7410EAD6EACA2FED79EA81C
:10180A00FED7430EAD6EACA2FED79EA8FED7480EF9
:10181A00AD6EACA2FED79EA8FED7450EAD6EACA2A9
:10182A00FED79EA8FED7340EAD6EACA2FED79EA8F8
:10183A00FED75F0EAD6EACA2FED79EA8FED7450EB0
:10184A00AD6EACA2FED79EA8FED74E0EAD6EACA270
:10185A00FED79EA8FED75F0EAD6EACA2FED79EA89D
:10186A00FED7430EAD6EACA2FED79EA8FED74F0E92
:10187A00AD6EACA2FED79EA8FED7550EAD6EACA239
:10188A00FED79EA8FED7520EAD6EACA2FED79EA87A
:10189A00FED7530EAD6EACA2FED7000E026E000E3E
:1018AA00016EE80E015CFD0E0258D8B09CD7014AC1
:1018BA00022AF7D7000E096E000E906E1F0E916E67
:1018CA00000E996E000E9A6E919A918C9198040E60
:1018DA004DEC10F091880C0E4DEC10F00CD0092A4A
:1018EA000C0E4DEC10F0C80E096405D08B828F8067
:1018FA008B94F29EFFD701EC10F00009D8B4EFD711
:10190A000F0E056E210E066E270EECEC0EF0000E81
:10191A00056E220E066E000EECEC0EF0000E056E41
:10192A00240E066E000EECEC0EF07B0E056E400ED9
:10193A00066E000EECEC0EF0000E056E410E066E01
:10194A00280EECEC0EF0800E056E420E066E000EAE
:10195A00ECEC0EF0000E056E430E066E280EECEC53
:10196A000EF0800E2BEC10F09C0E2BEC10F0A00E5B
:10197A002BEC10F0700E056E020E80EC0FF01200C8
:10198A0000016605D8A41AD0CA0E0001676516D0F0
:10199A00D10E0001676112D0700E0001686505D092
:1019AA00790E0001686101D08B84780E00016865A8
:1019BA0005D07F0E0001686101D08B940001660595
:1019CA00D8A41AD0D60E0001676516D0DD0E000124
:1019DA00676112D0700E0001686505D0790E0001AA
:1019EA00686101D08B82780E0001686505D07F0E90
:1019FA000001686101D08B9200016605D8A4C0D7A6
:101A0A00E20E00016765BCD7E90E00016761B8D72D
:101A1A00700E0001686505D0790E0001686101D079
:101A2A008F80780E00016865ABD77F0E0001686170
:101A3A00A7D78F90A5D795828C968C94000E026EAC
:101A4A00640E016EA4EC10F08C86000E056E030E77
:101A5A00026EE80E016EA4EC10F0052A83A002D0F3
:101A6A00410E056E400E0564F2D783A039D0000EF0
:101A7A00066E000E076E000E086E000E076E070E49
:101A8A00076401D01ED083A203D008500109086E52
:101A9A0008500824086E000E026E640E016EA4EC53
:101AAA0010F08C84010E026EF40E016EA4EC10F09C
:101ABA008C94010E026E900E016EA4EC10F0072AAF
:101ACA00DED70650010DF3500324D96EF4500420DA
:101ADA00DA6E08C0DFFF062A83B0CDD7065012009F
:101AEA00000E12000C6E0CC001F0026A000E046EA9
:101AFA00060E036ECAEC0DF00950280D0150F324AE
:101B0A000A6E0250F4200B6E0B50056E240E066E00
:101B1A000A50ECEC0EF018D0FD0E2BEC10F012006F
:101B2A00FC0E2BEC10F01200FB0E2BEC10F0120046
:101B3A00FA0E2BEC10F01200F90E2BEC10F012003A
:101B4A00F80E2BEC10F012000CC001F0026A000E25
:101B5A00046E060E036E0CEC0EF00250000AD8A4B6
:101B6A0012000150000AD8B4D7D7010AD8B4D8D77E
:101B7A00030AD8B4D9D7010AD8B4DAD7070AD8B42D
:101B8A00DBD7010AD8A41200DBD7000E066E04AE1A
:101B9A0006D0036C041ED8B0042A010E066E02AEEB
:101BAA0006D0016C021ED8B0022A010E061A000ED7
:101BBA00086E000E076E03500410D8B41CD0010E34
:101BCA00056E04D0D89003360436052A04AEFAD737
:101BDA00D890073608360350015C04500258D8A042
:101BEA0005D00350015E0450025A0780D89004328F
:101BFA000332052EEDD70650D8B404D0076C081E60
:101C0A00D8B0082A07C001F008C002F01200000E7E
:101C1A00066E02AE06D0016C021ED8B0022A010E70
:101C2A00066E04AE04D0036C041ED8B0042A035016
:101C3A000410D8B418D0010E056E04D0D89003361B
:101C4A000436052A04AEFAD70350015C0450025840
:101C5A00D8A004D00350015E0450025AD89004322E
:101C6A000332052EF1D70650D8B404D0016C021EF7
:101C7A00D8B0022A01C001F002C002F01200086EB8
:101C8A0008380F0B096E090E096403D00950170FA3
:101C9A0002D00950100F096E01D000F0C00E056E77
:101CAA00095080EC0FF00009D8B4F7D708500F0B91
:101CBA00096E090E096403D00950170F02D00950A2
:101CCA00100F096E01D000F0C00E056E095080ECAD
:101CDA000FF00009D8A41200F6D7000E066E000E07
:101CEA00056E03500410D8B41CD0010E076E04D040
:101CFA00D89003360436072A04AEFAD7D8900536A8
:101D0A0006360350015C04500258D8A005D003508F
:101D1A00015E0450025A0580D89004320332072E1D
:101D2A00EDD705C001F006C002F01200000E026EE7
:101D3A00020E1ED0996891809196919200F087CFF9
:101D4A0003F0918291860350030B036E030E03186E
:101D5A00D8B40DD0022A0C0E4DEC10F0F90E026424
:101D6A0008D0F29E8B948B828F80000E01D0010ED8
:101D7A00046E020E0418D8B4DDD7045012000A6E9D
:101D8A007B0E0C6E000E0B6E0F0E0A6402D0000E54
:101D9A000A6E270E096402D0000E096E0A50280D39
:101DAA000950F326000EF4220B50F3240B6E0C504C
:101DBA00F4200C6E01D000F00C50056E240E066E55
:101DCA000B50ECEC0EF00009D8A41200F4D7076E01
:101DDA00000E086E9BEC0EF0E806D8A41ED00C0E7E
:101DEA004DEC10F007507EEC10F09BEC0EF0E8067C
:101DFA00D8A413D00C0E4DEC10F005507EEC10F068
:101E0A009BEC0EF0E806D8A408D00C0E4DEC10F0AE
:101E1A0006508BEC10F0010E086E08501200A00E4E
:101E2A000F01266F000E0F01256F000E0F01246FA0
:101E3A00000E0F01236F0F0125810F0125830F016A
:101E4A0025850F0125870F0124850F0124878B849F
:101E5A008B828F809494949298909896989895945F
:101E6A009596F19E0F01538D1200A00E0F01266F59
:101E7A00000E0F01256F000E0F01246F000E0F01D7
:101E8A00236F0F0125810F0125830F0125850F017E
:101E9A0025870F0124850F0124878B848B828F80ED
:101EAA009494949298909896989895949596F19E71
:101EBA000F01538D120013D000F0C00E056E08C03A
:101ECA00F6FF09C0F7FF000EF86E0800F550E00FA4
:101EDA0080EC0FF00009D8B4EFD7084A092A08C0E5
:101EEA00F6FF09C0F7FF000EF86E0800F55000096A
:101EFA00D8B41200E2D7066E000E076E9BEC0EF005
:101F0A00E806D8A413D00C0E4DEC10F006507EEC67
:101F1A0010F09BEC0EF0E806D8A408D00C0E4DEC9D
:101F2A0010F005508BEC10F0010E076E07501200EE
:101F3A00026E000EC16E160EC06E02501F0B026EAC
:101F4A000244E846FC0B026E02500109C26EC282CC
:101F5A00C2B2FED7C3A003D0000E016E02D0C4CF16
:101F6A0001F001501200086E200E086002D03F0EE8
:101F7A00086E9F0E086402D03F0E086E0850E00FEC
:101F8A00086E01D000F0C00E056E085080EC0FF00C
:101F9A000009D8A41200F6D7000E056E240E066EAC
:101FAA00000EECEC0EF0000E0A6E000E096E800EAA
:101FBA000A180910D8B41200C00E056E000E80EC83
:101FCA000FF0094A0A2AF3D7800E056E240E066E10
:101FDA00000EECEC0EF0800E0A6E000E096EF80E82
:101FEA000A180910D8B41200C00E056E000E80EC53
:101FFA000FF0094A0A2AF3D799689180919691922B
:10200A0000F000F000F087CF01F091829186015034
:10201A00030B030AD8A402D0010E01D0000E016EF0
:10202A0001501200750E036E000E046E20EC0DF0C6
:10203A00096E0950D8B406D00A0E096003D009C047
:10204A007FF0F0D7000E00017F6FECD7066E000E0E
:10205A00056E9BEC0EF0E806D8A412000C0E4DECAF
:10206A0010F006508BEC10F0010E056E1200949CD5
:10207A00948E080E656E040ED46EE10EAF6E040ED9
:10208A00AC6E800EAB6E240EAC6E900EAB6E120070
:10209A00016E0BD000F000F000F000F000F000F04C
:1020AA0000F000F000F000F001060150D8B4120070
:1020BA00F1D71C6E06D0010E346E1200010E356E79
:1020CA0012001C50010AD8B4F6D7030AD8A4120089
:1020DA00F5D7016E06D0010E346E1200010E356E70
:1020EA0012000150010AD8B4F6D7030AD8A4120084
:1020FA00F5D7016E01C090FF000E996E91909196EE
:10210A00919400F000F0918491861200016E01C052
:10211A0090FF000E996E91809196919400F000F0D4
:10212A0091849186120014EC0FF0D5EC09F0010E9F
:10213A005EEC10F0D58EF284F28E00F0FED706D057
:10214A0000F000F000F00106D8A0020601500210CB
:10215A00D8B41200F5D706D000F000F000F001065E
:10216A00D8A0020601500210D8B41200F5D7356A79
:0E217A00346A336A326A316A000198EF10F05D
:020000040020DA
:08000000FFFFFFFFFFFFFFFF00
:020000040030CA
:0E00000015136100308081FFFFC0FFE0FF405C
:00000001FF
